:020000020000FC
:2000000000400034086008140800683A00000000000000000000000000000000000000003E
:2000080006C00074DEC0001406800074D684F0140080003410A5301400C0003418E53414AE
:2000100010C00326100000151080010410FFFD360008B5C00008BDC0003FFF06DEFFF904BB
:20001800DFC00615DF000515DF000504E03FFE15010000742123F404000825000007883A54
:20002000008000741084960410C00035010002840008C28000C000440080007410849604A2
:2000280010C00035008000741084900410800037E0BFFC150080007410848804E0FFFC171A
:2000300010C00035E03FFE15E0FFFB17008003F41090900418802B1EE03FFF1500001006B3
:20003800E0BFFF171085883A1085883A1007883A00800074108400041885883A10800037BA
:20004000E0BFFD15E0FFFE17E0BFFD171885883AE0BFFE15E0BFFF1710800044E0BFFF15FB
:20004800E0BFFF1710801010103FED1EE03FFB15E0FFFE17E0BFFE170100007421244604FE
:20005000180B883A100D883A00082500E0BFFE171000010E10800FC41005D1BA10BCA9C490
:200058001009883A0008194010803FCC10BFF6040100007421245204100B883A00082500CE
:20006000003FC806E0BFFB1710800044E0BFFB15003FC406DEFF9D04DFC06215DF0061154D
:20006800DF006104E13FFF150080007410A45844E13F9F041007883A00805FC4180B883A98
:20007000100D883A00081EC0E0BFFF17E0FF9F041885883A10800003E037883ADFC00117F2
:20007800DF000017DEC00204F800283A2005883A0007883A1980062628C9883A21C0000368
:2000800010C9883A18C0004421C00005003FF906F800283ADEFFFD04DFC00015D98001152A
:20008800D9C0021520800217280D883A2140021700C0007418E2270410C00115D9C00104A1
:2000900000083080DFC00017DEC00304F800283ADEFFFC04DFC00015D9400115D9800215B3
:20009800D9C003150080007410A4F10410800017200B883A010000742122270410C002179A
:2000A000D9800104190001151100021700088780DFC00017DEC00404F800283ADEFFFB04E8
:2000A800DC800315DC400215DC000115DFC004152025883A2823883AD98000053821883A5A
:2000B00004000A0E888001179009883A880B883AD80D883A01C00044103EE83A843FFFC4A2
:2000B800103FF72600BFFFC4000001060005883ADFC00417DC800317DC400217DC00011713
:2000C000DEC00504F800283ADEFFE304D8C00804DF001B15DDC01A15DD801915DD40181507
:2000C800DD001715DCC01615DC801515DC401415DC001315DFC01C152025883A2823883A95
:2000D0003839883AD9800F150021883AD8000E15002B883A002F883A0029883A0027883AD0
:2000D800D8000C15D8000B15002D883AD8C00915D8C00F171900000320803FCC1080201C21
:2000E00010BFE00410012C2600C00044B0C014261D800216B00006260001230601400084BC
:2000E800B1401D26014000C4B1402B2600011E060140094411410B2688800117D900000549
:2000F000880B883A9009883AD80D883A01C00044103EE83A1000E61E84000044000112062F
:2000F80001400C04114108260140094411400A1ED8800005888001179009883A880B883AE3
:20010000D80D883AB00F883A103EE83A1000D81E840000440001030625BFF404B5803FCC53
:2001080000C002441D80093600BFFFC4988004269809883A014002840008AD00000001064B
:200110000005883A15A7883A0000F00601400B841140F22605800084213FF40420C03FCC0F
:200118000100024420C00B3600BFFFC4A0800626A009883A01400284D8C011150008AD00EC
:20012000D8C01117000001060005883A10E9883A0000E50600C01B0410C0DE26013FFFC4D5
:20012800A100021E0500004400000106D8000B1501001A441100152620800916010018C467
:20013000110094260100190411001026010016041100D41E00C00044D8C00E150000140688
:2001380001001CC41100A4262080031601001BC41100D3260000CB0601001D4411000D26D1
:2001400001001E0411000A260000C606E0800104A8000826D8800D15E7000017E0000A0EC4
:20014800054000440739C83AA811883A0000080605C00404E0C00104D8C00D15E700001719
:20015000002B883A00000106054000440011883A0007883AD8ED883AE0001A26E009883A24
:20015800B80B883AD8C01115DA0012150008AC00B809883A100B883AD88010150008AD00FD
:20016000E085C83A01000244D8C01117D9801017DA0012172080021617000C0400000506A4
:20016800D9000E172000022617000DC400000106170015C4B700000518C000443039883A4F
:20017000003FE406B6C7C83AD8C00A15A0C7C83A00C00E0EB005883AB0C9883A01400C04C8
:20017800D8C0091710C0062E10C0004411400005182D883A190003261805883A003FF806DC
:20018000102D883AB6C7C83AD8C00A15D9000A172207883A98F9C83AD8C00B1718001726A3
:2001880040000A2600800B44D8800805888001179009883A880B883AD980080401C0004479
:20019000103EE83A10004A1E840000440700070E9009883A880B883A01800C04E00F883A91
:20019800000829C01000421E8721883AD8C00A1785A1883A1DB9C83A000020060700090EBF
:2001A0009009883A880B883A01800804E00F883ADA001215000829C0DA0012171000341EFA
:2001A8008721883A403FF12600800B44D8800805888001179009883A880B883AD9800804CE
:2001B00001C00044103EE83A1000291E84000044003FE606B5BFFFC4B08000039009883AAB
:2001B800880B883AD880080588800117D980080401C00044103EE83A10001D1EE587883AFA
:2001C0008585C83A00FFF3161021883ADF000D17000044060100004424C0080E9DBFFFC46D
:2001C8009009883A880B883A01800804B00F883A000829C010000E1E85A1883AE0800017CD
:2001D0009009883A880B883AD880000588800117D80D883A01C00044E5800104103EE83A5C
:2001D8001000031E84000044B039883A00002D0600BFFFC400003406E5800017E0C0010453
:2001E000D8C00A15B009883A000894809891C83A1039883A0200090E400F883A9009883AF6
:2001E800880B883A01800804DA001215000829C0DA001217103FEE1E8221883A8880011740
:2001F0009009883A880B883AB00D883AE00F883A103EE83A103FE61E8721883ADF000A17E2
:2001F8000000100605400044053FFFC4D8000E1505C00284A027883AD8000C15D8000B1581
:20020000A82D883A00000806DD800B15058000840000050600C00044D8C00C15058000C4A2
:2002080000000106002D883AD8C00F1718C00044D8C00F15003ECE068005883A00000206E9
:2002100005C00204003F3B06DFC01C17DF001B17DDC01A17DD801917DD401817DD001717EE
:20021800DCC01617DC801517DC401417DC001317DEC01D04F800283A2007883A01000074B1
:200220002124F104210000172805883A300F883A180B883A100D883A000830812880000B2C
:20022800DEFFFA04DC000015DFC00515DD000415DCC00315DC800215DC4001151080020C44
:200230002821883A100017262880008F100012162027883A3025883A3823883A05010004A0
:2002380004400B0E8140008F880F883AA440010E01C100049809883A900D883A0008964047
:200240000080050E88A3C83A90A5883A003FF4060005883A000004068080000B108010141E
:200248008080000D00BFFFC4DFC00517DD000417DCC00317DC800217DC400117DC00001702
:20025000DEC00604F800283A2005883A10C000071800022610800044003FFC061105C83A61
:20025800F800283ADEFFFD04DC400115DC0000152023883A04000074842530042809883ADE
:20026000300B883A380D883ADFC00215800000150008CA8000FFFFC410C0031E80C00017D3
:200268001800012688C00015DFC00217DC400117DC000017DEC00304F800283A2900182E8D
:20027000280017160080080400C00044000002061000112628000516294B883A10BFFFC42F
:2002780018C7883A293FFA3618000B260005883A214002362149C83A10C4B03A1806D07AF2
:20028000280AD07A183FFA1E3000011EF800283A2005883AF800283A0005883A003FFA0683
:2002880000C000440005883A003FF106DEFFFF04DFC0001520000916000F883A28000A1669
:20029000000D883A00089BC0380001260085C83ADFC00017DEC00104F800283A0109C83A77
:2002980001C00044283FF60E014BC83A39C0005C003FF3062000031628000C1601800044B3
:2002A00000089BC1DEFFFF04DFC000150109C83A280009160180004400089BC00085C83A44
:2002A800DFC00017DEC00104F800283A014BC83A0180004400089BC1014BC83A003FF50684
:2002B000000D883A00089BC10180004400089BC10005883A2000072620C0004C2008D07A20
:2002B800180001261145883A294B883A203FFA1EF800283AF800283ADEFFFC04DF0003159A
:2002C000DF000304E13FFD15E17FFE15E1BFFF15E0FFFE17E0BFFD1718800C260000080660
:2002C800E0BFFE1710C00104E0FFFE15E0FFFD1719000104E13FFD1518C0001710C0001584
:2002D000E0FFFE17E0BFFF1718BFF51EE037883ADF000017DEC00104F800283ADEFFFE04D0
:2002D800DFC00115DF000015D839883A010000742124F404014000742964B80401800074E5
:2002E00031A4F4040008AF80010000742120080401400074296008040180007431A008041C
:2002E8000008AF80010000742123F404014000742963F4040180007431A4B8040008AF8018
:2002F0000008F7800008F940E037883ADFC00117DF000017DEC00204F800283ADEFFFE04CB
:2002F800DFC00115DF000015D839883A0009883A0008D4000001883A0008D740D120411798
:20030000D0E04217D0A04317180B883A100D883A000805C0E037883ADFC00117DF000017F3
:20030800DEC00204F800283ADEFFFD04DFC00215DF000115DF000104E13FFF15E13FFF1700
:200310000008E240E037883ADFC00117DF000017DEC00204F800283ADEFFFE04DFC001158B
:20031800DF000015D839883A0080007410A4F30410800017100005260080007410A4F304DE
:2003200010800017103EE83A000002060080007410A53004E037883ADFC00117DF0000173B
:20032800DEC00204F800283ADEFFFB04DFC00415DF000315DF000304E13FFD15E17FFE15A1
:20033000E1BFFF15E0BFFD1710C000601800031E108000A01000091E00001006E0BFFF17AB
:20033800010000742124F204E17FFE17100D883A000F883A0008D90000000C06E0BFFF1728
:20034000010000742124F204E17FFE17100D883A000F883A0008D900000004060008C58090
:2003480000C0144410C0001500BFFFC4E037883ADFC00117DF000017DEC00204F800283A92
:20035000DEFFFD04DFC00215DF000115DF000104E13FFF150008FB00008000441001703A6A
:20035800E037883ADFC00117DF000017DEC00204F800283ADEFFFF04DF000015D839883A5A
:20036000E037883ADF000017DEC00104F800283ADEFFF904DF000615DF000604E13FFC15C3
:20036800E17FFD15E1BFFE15E1FFFF15E0BFFC1710800017E0BFFA15E0BFFE17E0FFFD17AE
:200370001885883AE0BFFB1500000E06E0BFFA17108001041080003710BFFFEC1000092646
:20037800E0FFFA17E0BFFD1711000044E13FFD151080000310803FCC1080201C10BFE0048E
:2003800018800035E0FFFD17E0BFFB1718BFEF36E0BFFE17E037883ADF000017DEC00104CA
:20038800F800283ADEFFFA04DFC00515DF000415DF000404E13FFF1500800244E0BFFD15DD
:20039000E13FFD17014003F4295090040008AD000100BEF4213C2004100B883A0008AC005A
:2003980001200034213FFFC4100B883A0008AC00E13FFF17100B883A0008AC00E0BFFE15C3
:2003A000E0BFFE1710002926E03FFC150000160600A0003410BFFFC410BFFFC4103FFE1E7B
:2003A800E13FFD17014003F4295090040008AD000100BEF4213C2004100B883A0008AC0042
:2003B00001200034213FFFC4100B883A0008AC00E0FFFF171885C83AE0BFFF15E0BFFC172B
:2003B80010800044E0BFFC15E0FFFC17E0BFFE1718BFE716E13FFD17014003F429509004AE
:2003C0000008AD000100BEF4213C2004100B883A0008AC001009883AE17FFF170008AD009D
:2003C80010BFFFC4103FFE1E00000D06E13FFD17014003F4295090040008AD000100BEF424
:2003D000213C2004100B883A0008AC001009883AE17FFF170008AD0010BFFFC400BFFE1690
:2003D8000005883AE037883ADFC00117DF000017DEC00204F800283ADEFFFF04DF000015E6
:2003E000D839883AE037883ADF000017DEC00104F800283ADEFFFF04DF000015D839883AB7
:2003E800E037883ADF000017DEC00104F800283ADEFFFF04DF000015D839883A000170FA17
:2003F000E037883ADF000017DEC00104F800283A2A2A2A2A502A2A2A61204F494F20646E51
:2003F80069442D6E655420655320706D6F736E65786520726C706D612A2A2A652A2A2A2AB6
:2004000068430A2A65676E6169775320656863742C31207361202C323320646E206F742054
:200408006E6168634C2065672073444520322C3120646E6168540A33617620652065756C29
:200410004120666F432043446E6E616863206C65656E6E6F64657463206F7420706D6554AA
:200418007461726520657275736E655320676E69646F6944736920656C6F63207463656CCE
:2004200065206465797265766365732020646E6F20646E616120736961726576206465673E
:200428007265766F20343620706D61530A73656C2D2D2D2D2D2D2D2D2D2D2D2D2D2D2D2D9F
:200430002D2D2D2D2D2D2D2D2D2D2D2D2D2D2D2D2D2D2D2D2D2D2D2D2D2D2D2D2D2D2D2D0C
:200438002D2D2D2D2D2D2D2D2D2D2D2D2D2D2D2D2D2D2D2D2D2D2D2D2D2D2D2D2D2D2D2D04
:200440002D2D2D2D2D2D2D2D2D2D2D2D2D2D2D2D2D2D2D2D00002D2D7761520A6C61562047
:20044800692065756564206E616D6963203D206C32312E256E61207865682064203D2078F4
:2004500032312E25000000642D6E4F0A20656964706D657474617265206572756425203D78
:20045800A5A5A500A3A4A4A4A2A2A3A3A1A1A1A29FA0A0A09E9E9F9F9D9D9D9E9B9C9C9C1A
:200460009A9A9B9B9899999A979798989696969794959595939394949292929390909191CB
:200468008F8F8F908D8E8E8E8C8C8D8D8A8B8B8C89898A8A8888888986878787858585862B
:200470008384848482828383808081817F7F80807D7E7E7E7C7C7D7D7A7B7B7C79797A7A98
:200478007778787976767777747575767373747471727272707071716E6F6F6F6D6D6D6E0F
:200480006B6B6C6C696A6A6B6868696966676767656565666363646461626263606060619D
:200488005E5E5F5F5C5D5D5E5B5B5B5C59595A5A5758585855565657545455555252535340
:20049000505151524E4F4F504D4D4E4E4B4B4C4C49494A4A474848494546464743444445FA
:2004980042424343404041413E3E3F3F3C3C3D3D3A3A3B3B383839393637373734353536D1
:2004A00032333334303131322E2F2F302C2D2D2E2A2A2B2B282829292626272724242525C4
:2004A800222223231F2021211D1E1E1F1B1C1C1D191A1A1B171718181515161612131414D8
:2004B000101111120E0F0F100C0C0D0D090A0B0B0708080905050607020304040001010209
:2004B800000000000000000000000000000000000000000000000000000000000000000024
:2004C00000000000000000000000000000000000000000000000000000000000000000001C
:2004C800000000000000000000000000000000000000000000000000000000000000000014
:2004D00000000000000000000000000000000000000000000000000000000000000000000C
:2004D800000000000000000000000000000000000000000000000000000000000000000004
:2004E0000000000000000000000000000000000000000000000000000000000000000000FC
:2004E8000000000000000000000000000000000000000000000000000000000000000000F4
:2004F0000000000000000000000000000000000000000000000093A0000093A8000093B03B
:2004F8000000000000000000000000000000000000000000000000000000000000000000E4
:200500000000000000000000000000000000000000000000000000000000000000000000DB
:200508000000000000000000000000000000000000000000000000000000000000000000D3
:200510000000000000000000000000000000000000000000000000000000000000000000CB
:200518000000000000000000000000000000000000000000000000000000000000000000C3
:200520000000000000000000000000000000000000000004000000000001000A00000000AC
:200528000002000A000000000000000000000000000092E0000092E0000112500000000060
:200530000000000000000000000000000000000000000000000000000000000000000000AB
:200538000000000000000000000000000000000000000000000000000000000000000000A3
:2005400000000000000000000000000000000000000000000000000000000000000000009B
:20054800000000000000000000000000000000000000000000000000000000000000000093
:00000001FF
